{
  "contractName": "FractionalNFT",
  "abi": [
    {
      "inputs": [],
      "stateMutability": "nonpayable",
      "type": "constructor"
    },
    {
      "anonymous": false,
      "inputs": [
        {
          "indexed": true,
          "internalType": "address",
          "name": "owner",
          "type": "address"
        },
        {
          "indexed": true,
          "internalType": "address",
          "name": "approved",
          "type": "address"
        },
        {
          "indexed": true,
          "internalType": "uint256",
          "name": "tokenId",
          "type": "uint256"
        }
      ],
      "name": "Approval",
      "type": "event"
    },
    {
      "anonymous": false,
      "inputs": [
        {
          "indexed": true,
          "internalType": "address",
          "name": "owner",
          "type": "address"
        },
        {
          "indexed": true,
          "internalType": "address",
          "name": "operator",
          "type": "address"
        },
        {
          "indexed": false,
          "internalType": "bool",
          "name": "approved",
          "type": "bool"
        }
      ],
      "name": "ApprovalForAll",
      "type": "event"
    },
    {
      "anonymous": false,
      "inputs": [
        {
          "indexed": true,
          "internalType": "address",
          "name": "previousOwner",
          "type": "address"
        },
        {
          "indexed": true,
          "internalType": "address",
          "name": "newOwner",
          "type": "address"
        }
      ],
      "name": "OwnershipTransferred",
      "type": "event"
    },
    {
      "anonymous": false,
      "inputs": [
        {
          "indexed": true,
          "internalType": "address",
          "name": "from",
          "type": "address"
        },
        {
          "indexed": true,
          "internalType": "address",
          "name": "to",
          "type": "address"
        },
        {
          "indexed": true,
          "internalType": "uint256",
          "name": "tokenId",
          "type": "uint256"
        }
      ],
      "name": "Transfer",
      "type": "event"
    },
    {
      "stateMutability": "payable",
      "type": "fallback"
    },
    {
      "inputs": [
        {
          "internalType": "uint256",
          "name": "",
          "type": "uint256"
        }
      ],
      "name": "FNFT",
      "outputs": [
        {
          "internalType": "uint256",
          "name": "tokenId",
          "type": "uint256"
        },
        {
          "internalType": "uint256",
          "name": "price",
          "type": "uint256"
        },
        {
          "internalType": "uint256",
          "name": "shares",
          "type": "uint256"
        },
        {
          "internalType": "uint256",
          "name": "shareValue",
          "type": "uint256"
        },
        {
          "internalType": "address",
          "name": "fractionalToken",
          "type": "address"
        },
        {
          "internalType": "address payable",
          "name": "owner",
          "type": "address"
        }
      ],
      "stateMutability": "view",
      "type": "function"
    },
    {
      "inputs": [
        {
          "internalType": "address",
          "name": "to",
          "type": "address"
        },
        {
          "internalType": "uint256",
          "name": "tokenId",
          "type": "uint256"
        }
      ],
      "name": "approve",
      "outputs": [],
      "stateMutability": "nonpayable",
      "type": "function"
    },
    {
      "inputs": [
        {
          "internalType": "address",
          "name": "owner",
          "type": "address"
        }
      ],
      "name": "balanceOf",
      "outputs": [
        {
          "internalType": "uint256",
          "name": "",
          "type": "uint256"
        }
      ],
      "stateMutability": "view",
      "type": "function"
    },
    {
      "inputs": [
        {
          "internalType": "uint256",
          "name": "tokenId",
          "type": "uint256"
        }
      ],
      "name": "getApproved",
      "outputs": [
        {
          "internalType": "address",
          "name": "",
          "type": "address"
        }
      ],
      "stateMutability": "view",
      "type": "function"
    },
    {
      "inputs": [
        {
          "internalType": "address",
          "name": "owner",
          "type": "address"
        },
        {
          "internalType": "address",
          "name": "operator",
          "type": "address"
        }
      ],
      "name": "isApprovedForAll",
      "outputs": [
        {
          "internalType": "bool",
          "name": "",
          "type": "bool"
        }
      ],
      "stateMutability": "view",
      "type": "function"
    },
    {
      "inputs": [],
      "name": "name",
      "outputs": [
        {
          "internalType": "string",
          "name": "",
          "type": "string"
        }
      ],
      "stateMutability": "view",
      "type": "function"
    },
    {
      "inputs": [],
      "name": "owner",
      "outputs": [
        {
          "internalType": "address",
          "name": "",
          "type": "address"
        }
      ],
      "stateMutability": "view",
      "type": "function"
    },
    {
      "inputs": [
        {
          "internalType": "uint256",
          "name": "tokenId",
          "type": "uint256"
        }
      ],
      "name": "ownerOf",
      "outputs": [
        {
          "internalType": "address",
          "name": "",
          "type": "address"
        }
      ],
      "stateMutability": "view",
      "type": "function"
    },
    {
      "inputs": [],
      "name": "renounceOwnership",
      "outputs": [],
      "stateMutability": "nonpayable",
      "type": "function"
    },
    {
      "inputs": [
        {
          "internalType": "address",
          "name": "from",
          "type": "address"
        },
        {
          "internalType": "address",
          "name": "to",
          "type": "address"
        },
        {
          "internalType": "uint256",
          "name": "tokenId",
          "type": "uint256"
        }
      ],
      "name": "safeTransferFrom",
      "outputs": [],
      "stateMutability": "nonpayable",
      "type": "function"
    },
    {
      "inputs": [
        {
          "internalType": "address",
          "name": "from",
          "type": "address"
        },
        {
          "internalType": "address",
          "name": "to",
          "type": "address"
        },
        {
          "internalType": "uint256",
          "name": "tokenId",
          "type": "uint256"
        },
        {
          "internalType": "bytes",
          "name": "data",
          "type": "bytes"
        }
      ],
      "name": "safeTransferFrom",
      "outputs": [],
      "stateMutability": "nonpayable",
      "type": "function"
    },
    {
      "inputs": [
        {
          "internalType": "address",
          "name": "operator",
          "type": "address"
        },
        {
          "internalType": "bool",
          "name": "approved",
          "type": "bool"
        }
      ],
      "name": "setApprovalForAll",
      "outputs": [],
      "stateMutability": "nonpayable",
      "type": "function"
    },
    {
      "inputs": [],
      "name": "symbol",
      "outputs": [
        {
          "internalType": "string",
          "name": "",
          "type": "string"
        }
      ],
      "stateMutability": "view",
      "type": "function"
    },
    {
      "inputs": [
        {
          "internalType": "address",
          "name": "from",
          "type": "address"
        },
        {
          "internalType": "address",
          "name": "to",
          "type": "address"
        },
        {
          "internalType": "uint256",
          "name": "tokenId",
          "type": "uint256"
        }
      ],
      "name": "transferFrom",
      "outputs": [],
      "stateMutability": "nonpayable",
      "type": "function"
    },
    {
      "inputs": [
        {
          "internalType": "address",
          "name": "newOwner",
          "type": "address"
        }
      ],
      "name": "transferOwnership",
      "outputs": [],
      "stateMutability": "nonpayable",
      "type": "function"
    },
    {
      "stateMutability": "payable",
      "type": "receive"
    },
    {
      "inputs": [
        {
          "internalType": "address",
          "name": "to",
          "type": "address"
        }
      ],
      "name": "safeMint",
      "outputs": [],
      "stateMutability": "nonpayable",
      "type": "function"
    },
    {
      "inputs": [
        {
          "internalType": "uint256",
          "name": "tokenId",
          "type": "uint256"
        }
      ],
      "name": "tokenURI",
      "outputs": [
        {
          "internalType": "string",
          "name": "",
          "type": "string"
        }
      ],
      "stateMutability": "view",
      "type": "function"
    },
    {
      "inputs": [
        {
          "internalType": "bytes4",
          "name": "interfaceId",
          "type": "bytes4"
        }
      ],
      "name": "supportsInterface",
      "outputs": [
        {
          "internalType": "bool",
          "name": "",
          "type": "bool"
        }
      ],
      "stateMutability": "view",
      "type": "function"
    },
    {
      "inputs": [
        {
          "internalType": "address",
          "name": "_to",
          "type": "address"
        },
        {
          "internalType": "string",
          "name": "tokenURI_",
          "type": "string"
        }
      ],
      "name": "mint",
      "outputs": [
        {
          "internalType": "uint256",
          "name": "",
          "type": "uint256"
        }
      ],
      "stateMutability": "nonpayable",
      "type": "function"
    },
    {
      "inputs": [
        {
          "internalType": "uint256",
          "name": "_tokenID",
          "type": "uint256"
        },
        {
          "internalType": "uint256",
          "name": "_totalFractionalTokens",
          "type": "uint256"
        },
        {
          "internalType": "uint256",
          "name": "_price",
          "type": "uint256"
        }
      ],
      "name": "lockNFT",
      "outputs": [],
      "stateMutability": "nonpayable",
      "type": "function"
    },
    {
      "inputs": [
        {
          "internalType": "uint256",
          "name": "_tokenID",
          "type": "uint256"
        },
        {
          "internalType": "uint256",
          "name": "_sharesToSell",
          "type": "uint256"
        }
      ],
      "name": "sellShares",
      "outputs": [],
      "stateMutability": "payable",
      "type": "function"
    },
    {
      "inputs": [
        {
          "internalType": "uint256",
          "name": "_tokenID",
          "type": "uint256"
        },
        {
          "internalType": "uint256",
          "name": "_sharesToBuy",
          "type": "uint256"
        }
      ],
      "name": "buyShares",
      "outputs": [],
      "stateMutability": "payable",
      "type": "function"
    },
    {
      "inputs": [
        {
          "internalType": "uint256",
          "name": "_tokenID",
          "type": "uint256"
        }
      ],
      "name": "releaseNFT",
      "outputs": [],
      "stateMutability": "nonpayable",
      "type": "function"
    }
  ],
  "bytecode": "0x60806040523480156200001157600080fd5b50604080518082018252600d81526c119c9858dd1a5bdb985b139195609a1b6020808301918252835180850190945260048452631193919560e21b9084015281519192916200006391600091620000e4565b50805162000079906001906020840190620000e4565b50506001600755506200008c3362000092565b620001c7565b600880546001600160a01b038381166001600160a01b0319831681179093556040519116919082907f8be0079c531659141344cd1fd0a4f28419497f9722a3daafe3b4186f6b6457e090600090a35050565b828054620000f2906200018a565b90600052602060002090601f01602090048101928262000116576000855562000161565b82601f106200013157805160ff191683800117855562000161565b8280016001018555821562000161579182015b828111156200016157825182559160200191906001019062000144565b506200016f92915062000173565b5090565b5b808211156200016f576000815560010162000174565b600181811c908216806200019f57607f821691505b60208210811415620001c157634e487b7160e01b600052602260045260246000fd5b50919050565b61361780620001d76000396000f3fe608060405260043610620001535760003560e01c806370a0823111620000bf578063b88d4fde1162000075578063b88d4fde146200045a578063beebc5da146200047f578063c87b56dd1462000496578063d0def52114620004bb578063e985e9c514620004e0578063f2fde38b146200052d57005b806370a082311462000316578063715018a6146200034a5780638da5cb5b146200036257806395d89b411462000382578063a22cb465146200039a578063adc4b8f514620003bf57005b806323b872dd116200011557806323b872dd146200023857806329a88a24146200025d57806340d097c3146200028257806342842e0e14620002a75780635e5ba8d714620002cc5780636352211e14620002f157005b806301ffc9a7146200015d57806306fdde031462000197578063081812fc14620001be578063095ea7b314620001fc5780632279a970146200022157005b366200015b57005b005b3480156200016a57600080fd5b50620001826200017c366004620020de565b62000552565b60405190151581526020015b60405180910390f35b348015620001a457600080fd5b50620001af62000565565b6040516200018e91906200215b565b348015620001cb57600080fd5b50620001e3620001dd36600462002170565b620005ff565b6040516001600160a01b0390911681526020016200018e565b3480156200020957600080fd5b506200015b6200021b366004620021a7565b62000628565b6200015b62000232366004620021d4565b6200074d565b3480156200024557600080fd5b506200015b62000257366004620021f7565b62000a46565b3480156200026a57600080fd5b506200015b6200027c36600462002238565b62000a7e565b3480156200028f57600080fd5b506200015b620002a136600462002265565b62000c0b565b348015620002b457600080fd5b506200015b620002c6366004620021f7565b62000c3c565b348015620002d957600080fd5b506200015b620002eb36600462002170565b62000c59565b348015620002fe57600080fd5b50620001e36200031036600462002170565b62000f25565b3480156200032357600080fd5b506200033b6200033536600462002265565b62000f87565b6040519081526020016200018e565b3480156200035757600080fd5b506200015b6200100f565b3480156200036f57600080fd5b506008546001600160a01b0316620001e3565b3480156200038f57600080fd5b50620001af62001027565b348015620003a757600080fd5b506200015b620003b936600462002292565b62001038565b348015620003cc57600080fd5b5062000420620003de36600462002170565b600a6020526000908152604090208054600182015460028301546003840154600485015460059095015493949293919290916001600160a01b03918216911686565b6040805196875260208701959095529385019290925260608401526001600160a01b0390811660808401521660a082015260c0016200018e565b3480156200046757600080fd5b506200015b6200047936600462002361565b62001049565b6200015b62000490366004620021d4565b62001088565b348015620004a357600080fd5b50620001af620004b536600462002170565b62001429565b348015620004c857600080fd5b506200033b620004da366004620023e6565b62001436565b348015620004ed57600080fd5b5062000182620004ff3660046200244f565b6001600160a01b03918216600090815260056020908152604080832093909416825291909152205460ff1690565b3480156200053a57600080fd5b506200015b6200054c36600462002265565b6200147e565b60006200055f82620014fa565b92915050565b606060008054620005769062002487565b80601f0160208091040260200160405190810160405280929190818152602001828054620005a49062002487565b8015620005f55780601f10620005c957610100808354040283529160200191620005f5565b820191906000526020600020905b815481529060010190602001808311620005d757829003601f168201915b5050505050905090565b60006200060c826200154d565b506000908152600460205260409020546001600160a01b031690565b6000620006358262000f25565b9050806001600160a01b0316836001600160a01b03161415620006a95760405162461bcd60e51b815260206004820152602160248201527f4552433732313a20617070726f76616c20746f2063757272656e74206f776e656044820152603960f91b60648201526084015b60405180910390fd5b336001600160a01b0382161480620006c85750620006c88133620004ff565b6200073c5760405162461bcd60e51b815260206004820152603e60248201527f4552433732313a20617070726f76652063616c6c6572206973206e6f7420746f60448201527f6b656e206f776e6572206e6f7220617070726f76656420666f7220616c6c00006064820152608401620006a0565b620007488383620015ae565b505050565b60026007541415620007a25760405162461bcd60e51b815260206004820152601f60248201527f5265656e7472616e637947756172643a207265656e7472616e742063616c6c006044820152606401620006a0565b600260078190556000838152600a6020908152604091829020825160c08101845281548152600182015492810192909252928301549181018290526003830154606082015260048301546001600160a01b03908116608083015260059093015490921660a08301528211156200086a5760405162461bcd60e51b815260206004820152602660248201527f43616e6e6f742073656c6c20736861726573206d6f7265207468616e20616c6c6044820152651bd8d85d195960d21b6064820152608401620006a0565b60808101516040516370a0823160e01b815233600482015283916001600160a01b0316906370a0823190602401602060405180830381865afa158015620008b5573d6000803e3d6000fd5b505050506040513d601f19601f82011682018060405250810190620008db9190620024c4565b1015620009215760405162461bcd60e51b8152602060048201526013602482015272496e73756666696369656e742073686172657360681b6044820152606401620006a0565b60608101516000906200093590846200161e565b905047808211156200098a5760405162461bcd60e51b815260206004820152601d60248201527f496e73756666696369656e742066756e6420696e20636f6e74726163740000006044820152606401620006a0565b604051339083156108fc029084906000818181858888f19350505050158015620009b8573d6000803e3d6000fd5b5060808301516040516323b872dd60e01b8152336004820152306024820152604481018690526001600160a01b03909116906323b872dd906064016020604051808303816000875af115801562000a13573d6000803e3d6000fd5b505050506040513d601f19601f8201168201806040525081019062000a399190620024de565b5050600160075550505050565b62000a5233826200162c565b62000a715760405162461bcd60e51b8152600401620006a090620024fe565b62000748838383620016b1565b62000a8862001859565b8262000a948162000f25565b6001600160a01b0316336001600160a01b03161462000ab257600080fd5b62000abf333086620016b1565b600060405162000acf9062002013565b604051809103906000f08015801562000aec573d6000803e3d6000fd5b506040516340c10f1960e01b8152336004820152602481018690529091506001600160a01b038216906340c10f1990604401600060405180830381600087803b15801562000b3957600080fd5b505af115801562000b4e573d6000803e3d6000fd5b5050505060006040518060c0016040528087815260200185815260200186815260200162000b868787620018b590919063ffffffff16565b81526001600160a01b03938416602080830191909152336040928301526000988952600a8152978190208251815597820151600189015581015160028801556060810151600388015560808101516004880180549185166001600160a01b031992831617905560a0909101516005909701805497909316961695909517905550505050565b62000c1562001859565b62000c24600980546001019055565b62000c398162000c3360095490565b620018c3565b50565b620007488383836040518060200160405280600081525062001049565b6000818152600a6020908152604091829020825160c08101845281548152600182015481840152600282015481850152600382015460608201526004808301546001600160a01b03908116608084018190526005909401541660a083015284516318160ddd60e01b81529451919492936318160ddd93808301939192908290030181865afa15801562000cf0573d6000803e3d6000fd5b505050506040513d601f19601f8201168201806040525081019062000d169190620024c4565b60808201516040516370a0823160e01b81523360048201526001600160a01b03909116906370a0823190602401602060405180830381865afa15801562000d61573d6000803e3d6000fd5b505050506040513d601f19601f8201168201806040525081019062000d879190620024c4565b101562000df25760405162461bcd60e51b815260206004820152603260248201527f416c6c204672616374696f6e616c20546f6b656e7320617265206e6565646564604482015271081d1bc81c995919595b481d1a194813919560721b6064820152608401620006a0565b60808101516040516370a0823160e01b815233600482018190526001600160a01b0390921691639dc29fac9183906370a0823190602401602060405180830381865afa15801562000e47573d6000803e3d6000fd5b505050506040513d601f19601f8201168201806040525081019062000e6d9190620024c4565b6040516001600160e01b031960e085901b1681526001600160a01b0390921660048301526024820152604401600060405180830381600087803b15801562000eb457600080fd5b505af115801562000ec9573d6000803e3d6000fd5b5050505062000eda303384620016b1565b506000908152600a60205260408120818155600181018290556002810182905560038101919091556004810180546001600160a01b0319908116909155600590910180549091169055565b6000818152600260205260408120546001600160a01b0316806200055f5760405162461bcd60e51b8152602060048201526018602482015277115490cdcc8c4e881a5b9d985b1a59081d1bdad95b88125160421b6044820152606401620006a0565b60006001600160a01b03821662000ff35760405162461bcd60e51b815260206004820152602960248201527f4552433732313a2061646472657373207a65726f206973206e6f7420612076616044820152683634b21037bbb732b960b91b6064820152608401620006a0565b506001600160a01b031660009081526003602052604090205490565b6200101962001859565b620010256000620018df565b565b606060018054620005769062002487565b6200104533838362001931565b5050565b6200105533836200162c565b620010745760405162461bcd60e51b8152600401620006a090620024fe565b620010828484848462001a02565b50505050565b60026007541415620010dd5760405162461bcd60e51b815260206004820152601f60248201527f5265656e7472616e637947756172643a207265656e7472616e742063616c6c006044820152606401620006a0565b600260078190556000838152600a6020908152604091829020825160c08101845281548152600182015492810192909252928301549181018290526003830154606082015260048301546001600160a01b03908116608083015260059093015490921660a0830152821115620011a45760405162461bcd60e51b815260206004820152602560248201527f43616e6e6f742062757920736861726573206d6f7265207468616e20616c6c6f60448201526418d85d195960da1b6064820152608401620006a0565b60808101516040516370a0823160e01b815230600482015283916001600160a01b0316906370a0823190602401602060405180830381865afa158015620011ef573d6000803e3d6000fd5b505050506040513d601f19601f82011682018060405250810190620012159190620024c4565b10156200125b5760405162461bcd60e51b8152602060048201526013602482015272496e73756666696369656e742073686172657360681b6044820152606401620006a0565b60608101516200126c90836200161e565b341015620012b25760405162461bcd60e51b8152602060048201526012602482015271496e73756666696369656e742066756e647360701b6044820152606401620006a0565b6060810151600090620012c690846200161e565b604051909150309082156108fc029083906000818181858888f19350505050158015620012f7573d6000803e3d6000fd5b5060808201516040516370a0823160e01b815233600482015284916001600160a01b0316906370a0823190602401602060405180830381865afa15801562001343573d6000803e3d6000fd5b505050506040513d601f19601f82011682018060405250810190620013699190620024c4565b62001375919062002562565b82604001511415620013a3576000848152600a6020526040902060050180546001600160a01b031916331790555b608082015160405163a9059cbb60e01b8152336004820152602481018590526001600160a01b039091169063a9059cbb906044016020604051808303816000875af1158015620013f7573d6000803e3d6000fd5b505050506040513d601f19601f820116820180604052508101906200141d9190620024de565b50506001600755505050565b60606200055f8262001a3c565b60006200144262001859565b62001451600980546001019055565b60006200145d60095490565b90506200146b8482620018c3565b62001477818462001b56565b9392505050565b6200148862001859565b6001600160a01b038116620014ef5760405162461bcd60e51b815260206004820152602660248201527f4f776e61626c653a206e6577206f776e657220697320746865207a65726f206160448201526564647265737360d01b6064820152608401620006a0565b62000c3981620018df565b60006001600160e01b031982166380ac58cd60e01b14806200152c57506001600160e01b03198216635b5e139f60e01b145b806200055f57506301ffc9a760e01b6001600160e01b03198316146200055f565b6000818152600260205260409020546001600160a01b031662000c395760405162461bcd60e51b8152602060048201526018602482015277115490cdcc8c4e881a5b9d985b1a59081d1bdad95b88125160421b6044820152606401620006a0565b600081815260046020526040902080546001600160a01b0319166001600160a01b0384169081179091558190620015e58262000f25565b6001600160a01b03167f8c5be1e5ebec7d5bd14f71427d1e84f3dd0314c0f7b2291e5b200ac8c7c3b92560405160405180910390a45050565b60006200147782846200257d565b6000806200163a8362000f25565b9050806001600160a01b0316846001600160a01b031614806200168257506001600160a01b0380821660009081526005602090815260408083209388168352929052205460ff165b80620016a95750836001600160a01b03166200169e84620005ff565b6001600160a01b0316145b949350505050565b826001600160a01b0316620016c68262000f25565b6001600160a01b0316146200172c5760405162461bcd60e51b815260206004820152602560248201527f4552433732313a207472616e736665722066726f6d20696e636f72726563742060448201526437bbb732b960d91b6064820152608401620006a0565b6001600160a01b038216620017905760405162461bcd60e51b8152602060048201526024808201527f4552433732313a207472616e7366657220746f20746865207a65726f206164646044820152637265737360e01b6064820152608401620006a0565b6200179d600082620015ae565b6001600160a01b0383166000908152600360205260408120805460019290620017c89084906200259f565b90915550506001600160a01b0382166000908152600360205260408120805460019290620017f890849062002562565b909155505060008181526002602052604080822080546001600160a01b0319166001600160a01b0386811691821790925591518493918716917fddf252ad1be2c89b69c2b068fc378daa952ba7f163c4a11628f55a4df523b3ef91a4505050565b6008546001600160a01b03163314620010255760405162461bcd60e51b815260206004820181905260248201527f4f776e61626c653a2063616c6c6572206973206e6f7420746865206f776e65726044820152606401620006a0565b6000620014778284620025cf565b6200104582826040518060200160405280600081525062001bf4565b600880546001600160a01b038381166001600160a01b0319831681179093556040519116919082907f8be0079c531659141344cd1fd0a4f28419497f9722a3daafe3b4186f6b6457e090600090a35050565b816001600160a01b0316836001600160a01b03161415620019955760405162461bcd60e51b815260206004820152601960248201527f4552433732313a20617070726f766520746f2063616c6c6572000000000000006044820152606401620006a0565b6001600160a01b03838116600081815260056020908152604080832094871680845294825291829020805460ff191686151590811790915591519182527f17307eab39ab6107e8899845ad3d59bd9653f200f220920489ca2b5937696c31910160405180910390a3505050565b62001a0f848484620016b1565b62001a1d8484848462001c2e565b620010825760405162461bcd60e51b8152600401620006a090620025e6565b606062001a49826200154d565b6000828152600660205260408120805462001a649062002487565b80601f016020809104026020016040519081016040528092919081815260200182805462001a929062002487565b801562001ae35780601f1062001ab75761010080835404028352916020019162001ae3565b820191906000526020600020905b81548152906001019060200180831162001ac557829003601f168201915b50505050509050600062001b0260408051602081019091526000815290565b905080516000141562001b16575092915050565b81511562001b4b57808260405160200162001b3392919062002638565b60405160208183030381529060405292505050919050565b620016a98462001d39565b6000828152600260205260409020546001600160a01b031662001bd35760405162461bcd60e51b815260206004820152602e60248201527f45524337323155524953746f726167653a2055524920736574206f66206e6f6e60448201526d32bc34b9ba32b73a103a37b5b2b760911b6064820152608401620006a0565b60008281526006602090815260409091208251620007489284019062002021565b62001c00838362001db5565b62001c0f600084848462001c2e565b620007485760405162461bcd60e51b8152600401620006a090620025e6565b60006001600160a01b0384163b1562001d2e57604051630a85bd0160e11b81526001600160a01b0385169063150b7a029062001c759033908990889088906004016200266b565b6020604051808303816000875af192505050801562001cb3575060408051601f3d908101601f1916820190925262001cb091810190620026aa565b60015b62001d13573d80801562001ce4576040519150601f19603f3d011682016040523d82523d6000602084013e62001ce9565b606091505b50805162001d0b5760405162461bcd60e51b8152600401620006a090620025e6565b805181602001fd5b6001600160e01b031916630a85bd0160e11b149050620016a9565b506001949350505050565b606062001d46826200154d565b600062001d5e60408051602081019091526000815290565b9050600081511162001d80576040518060200160405280600081525062001477565b8062001d8c8462001efd565b60405160200162001d9f92919062002638565b6040516020818303038152906040529392505050565b6001600160a01b03821662001e0d5760405162461bcd60e51b815260206004820181905260248201527f4552433732313a206d696e7420746f20746865207a65726f20616464726573736044820152606401620006a0565b6000818152600260205260409020546001600160a01b03161562001e745760405162461bcd60e51b815260206004820152601c60248201527f4552433732313a20746f6b656e20616c7265616479206d696e746564000000006044820152606401620006a0565b6001600160a01b038216600090815260036020526040812080546001929062001e9f90849062002562565b909155505060008181526002602052604080822080546001600160a01b0319166001600160a01b03861690811790915590518392907fddf252ad1be2c89b69c2b068fc378daa952ba7f163c4a11628f55a4df523b3ef908290a45050565b60608162001f225750506040805180820190915260018152600360fc1b602082015290565b8160005b811562001f52578062001f3981620026ca565b915062001f4a9050600a83620025cf565b915062001f26565b60008167ffffffffffffffff81111562001f705762001f70620022ce565b6040519080825280601f01601f19166020018201604052801562001f9b576020820181803683370190505b5090505b8415620016a95762001fb36001836200259f565b915062001fc2600a86620026e8565b62001fcf90603062002562565b60f81b81838151811062001fe75762001fe7620026ff565b60200101906001600160f81b031916908160001a9053506200200b600a86620025cf565b945062001f9f565b610ecc806200271683390190565b8280546200202f9062002487565b90600052602060002090601f0160209004810192826200205357600085556200209e565b82601f106200206e57805160ff19168380011785556200209e565b828001600101855582156200209e579182015b828111156200209e57825182559160200191906001019062002081565b50620020ac929150620020b0565b5090565b5b80821115620020ac5760008155600101620020b1565b6001600160e01b03198116811462000c3957600080fd5b600060208284031215620020f157600080fd5b81356200147781620020c7565b60005b838110156200211b57818101518382015260200162002101565b83811115620010825750506000910152565b6000815180845262002147816020860160208601620020fe565b601f01601f19169290920160200192915050565b6020815260006200147760208301846200212d565b6000602082840312156200218357600080fd5b5035919050565b80356001600160a01b0381168114620021a257600080fd5b919050565b60008060408385031215620021bb57600080fd5b620021c6836200218a565b946020939093013593505050565b60008060408385031215620021e857600080fd5b50508035926020909101359150565b6000806000606084860312156200220d57600080fd5b62002218846200218a565b925062002228602085016200218a565b9150604084013590509250925092565b6000806000606084860312156200224e57600080fd5b505081359360208301359350604090920135919050565b6000602082840312156200227857600080fd5b62001477826200218a565b801515811462000c3957600080fd5b60008060408385031215620022a657600080fd5b620022b1836200218a565b91506020830135620022c38162002283565b809150509250929050565b634e487b7160e01b600052604160045260246000fd5b600067ffffffffffffffff80841115620023025762002302620022ce565b604051601f8501601f19908116603f011681019082821181831017156200232d576200232d620022ce565b816040528093508581528686860111156200234757600080fd5b858560208301376000602087830101525050509392505050565b600080600080608085870312156200237857600080fd5b62002383856200218a565b935062002393602086016200218a565b925060408501359150606085013567ffffffffffffffff811115620023b757600080fd5b8501601f81018713620023c957600080fd5b620023da87823560208401620022e4565b91505092959194509250565b60008060408385031215620023fa57600080fd5b62002405836200218a565b9150602083013567ffffffffffffffff8111156200242257600080fd5b8301601f810185136200243457600080fd5b6200244585823560208401620022e4565b9150509250929050565b600080604083850312156200246357600080fd5b6200246e836200218a565b91506200247e602084016200218a565b90509250929050565b600181811c908216806200249c57607f821691505b60208210811415620024be57634e487b7160e01b600052602260045260246000fd5b50919050565b600060208284031215620024d757600080fd5b5051919050565b600060208284031215620024f157600080fd5b8151620014778162002283565b6020808252602e908201527f4552433732313a2063616c6c6572206973206e6f7420746f6b656e206f776e6560408201526d1c881b9bdc88185c1c1c9bdd995960921b606082015260800190565b634e487b7160e01b600052601160045260246000fd5b600082198211156200257857620025786200254c565b500190565b60008160001904831182151516156200259a576200259a6200254c565b500290565b600082821015620025b457620025b46200254c565b500390565b634e487b7160e01b600052601260045260246000fd5b600082620025e157620025e1620025b9565b500490565b60208082526032908201527f4552433732313a207472616e7366657220746f206e6f6e20455243373231526560408201527131b2b4bb32b91034b6b83632b6b2b73a32b960711b606082015260800190565b600083516200264c818460208801620020fe565b83519083019062002662818360208801620020fe565b01949350505050565b6001600160a01b0385811682528416602082015260408101839052608060608201819052600090620026a0908301846200212d565b9695505050505050565b600060208284031215620026bd57600080fd5b81516200147781620020c7565b6000600019821415620026e157620026e16200254c565b5060010190565b600082620026fa57620026fa620025b9565b500690565b634e487b7160e01b600052603260045260246000fdfe60806040523480156200001157600080fd5b50604080518082018252601081526f233930b1ba34b7b730b6102a37b5b2b760811b602080830191825283518085019094526006845265232a37b5b2b760d11b9084015281519192916200006891600391620000f7565b5080516200007e906004906020840190620000f7565b5050506200009b62000095620000a160201b60201c565b620000a5565b620001da565b3390565b600580546001600160a01b038381166001600160a01b0319831681179093556040519116919082907f8be0079c531659141344cd1fd0a4f28419497f9722a3daafe3b4186f6b6457e090600090a35050565b82805462000105906200019d565b90600052602060002090601f01602090048101928262000129576000855562000174565b82601f106200014457805160ff191683800117855562000174565b8280016001018555821562000174579182015b828111156200017457825182559160200191906001019062000157565b506200018292915062000186565b5090565b5b8082111562000182576000815560010162000187565b600181811c90821680620001b257607f821691505b60208210811415620001d457634e487b7160e01b600052602260045260246000fd5b50919050565b610ce280620001ea6000396000f3fe608060405234801561001057600080fd5b50600436106101005760003560e01c8063715018a611610097578063a457c2d711610066578063a457c2d714610209578063a9059cbb1461021c578063dd62ed3e1461022f578063f2fde38b1461024257600080fd5b8063715018a6146101cb5780638da5cb5b146101d357806395d89b41146101ee5780639dc29fac146101f657600080fd5b8063313ce567116100d3578063313ce5671461016b578063395093511461017a57806340c10f191461018d57806370a08231146101a257600080fd5b806306fdde0314610105578063095ea7b31461012357806318160ddd1461014657806323b872dd14610158575b600080fd5b61010d610255565b60405161011a9190610b00565b60405180910390f35b610136610131366004610b71565b6102e7565b604051901515815260200161011a565b6002545b60405190815260200161011a565b610136610166366004610b9b565b6102ff565b6040516012815260200161011a565b610136610188366004610b71565b610323565b6101a061019b366004610b71565b610345565b005b61014a6101b0366004610bd7565b6001600160a01b031660009081526020819052604090205490565b6101a061035b565b6005546040516001600160a01b03909116815260200161011a565b61010d61036f565b6101a0610204366004610b71565b61037e565b610136610217366004610b71565b610390565b61013661022a366004610b71565b610410565b61014a61023d366004610bf9565b61041e565b6101a0610250366004610bd7565b610449565b60606003805461026490610c2c565b80601f016020809104026020016040519081016040528092919081815260200182805461029090610c2c565b80156102dd5780601f106102b2576101008083540402835291602001916102dd565b820191906000526020600020905b8154815290600101906020018083116102c057829003601f168201915b5050505050905090565b6000336102f58185856104c2565b5060019392505050565b60003361030d8582856105e7565b610318858585610661565b506001949350505050565b6000336102f5818585610336838361041e565b6103409190610c7d565b6104c2565b61034d61082f565b6103578282610889565b5050565b61036361082f565b61036d6000610968565b565b60606004805461026490610c2c565b61038661082f565b61035782826109ba565b6000338161039e828661041e565b9050838110156104035760405162461bcd60e51b815260206004820152602560248201527f45524332303a2064656372656173656420616c6c6f77616e63652062656c6f77604482015264207a65726f60d81b60648201526084015b60405180910390fd5b61031882868684036104c2565b6000336102f5818585610661565b6001600160a01b03918216600090815260016020908152604080832093909416825291909152205490565b61045161082f565b6001600160a01b0381166104b65760405162461bcd60e51b815260206004820152602660248201527f4f776e61626c653a206e6577206f776e657220697320746865207a65726f206160448201526564647265737360d01b60648201526084016103fa565b6104bf81610968565b50565b6001600160a01b0383166105245760405162461bcd60e51b8152602060048201526024808201527f45524332303a20617070726f76652066726f6d20746865207a65726f206164646044820152637265737360e01b60648201526084016103fa565b6001600160a01b0382166105855760405162461bcd60e51b815260206004820152602260248201527f45524332303a20617070726f766520746f20746865207a65726f206164647265604482015261737360f01b60648201526084016103fa565b6001600160a01b0383811660008181526001602090815260408083209487168084529482529182902085905590518481527f8c5be1e5ebec7d5bd14f71427d1e84f3dd0314c0f7b2291e5b200ac8c7c3b92591015b60405180910390a3505050565b60006105f3848461041e565b9050600019811461065b578181101561064e5760405162461bcd60e51b815260206004820152601d60248201527f45524332303a20696e73756666696369656e7420616c6c6f77616e636500000060448201526064016103fa565b61065b84848484036104c2565b50505050565b6001600160a01b0383166106c55760405162461bcd60e51b815260206004820152602560248201527f45524332303a207472616e736665722066726f6d20746865207a65726f206164604482015264647265737360d81b60648201526084016103fa565b6001600160a01b0382166107275760405162461bcd60e51b815260206004820152602360248201527f45524332303a207472616e7366657220746f20746865207a65726f206164647260448201526265737360e81b60648201526084016103fa565b6001600160a01b0383166000908152602081905260409020548181101561079f5760405162461bcd60e51b815260206004820152602660248201527f45524332303a207472616e7366657220616d6f756e7420657863656564732062604482015265616c616e636560d01b60648201526084016103fa565b6001600160a01b038085166000908152602081905260408082208585039055918516815290812080548492906107d6908490610c7d565b92505081905550826001600160a01b0316846001600160a01b03167fddf252ad1be2c89b69c2b068fc378daa952ba7f163c4a11628f55a4df523b3ef8460405161082291815260200190565b60405180910390a361065b565b6005546001600160a01b0316331461036d5760405162461bcd60e51b815260206004820181905260248201527f4f776e61626c653a2063616c6c6572206973206e6f7420746865206f776e657260448201526064016103fa565b6001600160a01b0382166108df5760405162461bcd60e51b815260206004820152601f60248201527f45524332303a206d696e7420746f20746865207a65726f20616464726573730060448201526064016103fa565b80600260008282546108f19190610c7d565b90915550506001600160a01b0382166000908152602081905260408120805483929061091e908490610c7d565b90915550506040518181526001600160a01b038316906000907fddf252ad1be2c89b69c2b068fc378daa952ba7f163c4a11628f55a4df523b3ef9060200160405180910390a35050565b600580546001600160a01b038381166001600160a01b0319831681179093556040519116919082907f8be0079c531659141344cd1fd0a4f28419497f9722a3daafe3b4186f6b6457e090600090a35050565b6001600160a01b038216610a1a5760405162461bcd60e51b815260206004820152602160248201527f45524332303a206275726e2066726f6d20746865207a65726f206164647265736044820152607360f81b60648201526084016103fa565b6001600160a01b03821660009081526020819052604090205481811015610a8e5760405162461bcd60e51b815260206004820152602260248201527f45524332303a206275726e20616d6f756e7420657863656564732062616c616e604482015261636560f01b60648201526084016103fa565b6001600160a01b0383166000908152602081905260408120838303905560028054849290610abd908490610c95565b90915550506040518281526000906001600160a01b038516907fddf252ad1be2c89b69c2b068fc378daa952ba7f163c4a11628f55a4df523b3ef906020016105da565b600060208083528351808285015260005b81811015610b2d57858101830151858201604001528201610b11565b81811115610b3f576000604083870101525b50601f01601f1916929092016040019392505050565b80356001600160a01b0381168114610b6c57600080fd5b919050565b60008060408385031215610b8457600080fd5b610b8d83610b55565b946020939093013593505050565b600080600060608486031215610bb057600080fd5b610bb984610b55565b9250610bc760208501610b55565b9150604084013590509250925092565b600060208284031215610be957600080fd5b610bf282610b55565b9392505050565b60008060408385031215610c0c57600080fd5b610c1583610b55565b9150610c2360208401610b55565b90509250929050565b600181811c90821680610c4057607f821691505b60208210811415610c6157634e487b7160e01b600052602260045260246000fd5b50919050565b634e487b7160e01b600052601160045260246000fd5b60008219821115610c9057610c90610c67565b500190565b600082821015610ca757610ca7610c67565b50039056fea26469706673582212200231ebbc0a0754a75033202dd3bee6f016c54afbea507e9c2586a8b15c03b82564736f6c634300080a0033a2646970667358221220ed32c86dd054f7f3302b8ea7d0a3862b3c2786d91c82519b6bd9b2c90bdfdc9464736f6c634300080a0033",
  "immutableReferences": {},
  "source": "// SPDX-License-Identifier: MIT\r\npragma solidity ^0.8.10;\r\n\r\nimport \"@openzeppelin/contracts/token/ERC721/extensions/ERC721URIStorage.sol\";\r\nimport \"@openzeppelin/contracts/security/ReentrancyGuard.sol\";\r\nimport \"@openzeppelin/contracts/utils/Counters.sol\";\r\nimport \"@openzeppelin/contracts/access/Ownable.sol\";\r\nimport \"@openzeppelin/contracts/token/ERC20/ERC20.sol\";\r\nimport \"@openzeppelin/contracts/utils/math/SafeMath.sol\";\r\n\r\ncontract FractionalNFT is ERC721URIStorage, ReentrancyGuard, Ownable {\r\n    using Counters for Counters.Counter;\r\n    using SafeMath for uint256;\r\n\r\n    Counters.Counter private _tokenIdCounter;\r\n\r\n    struct _fnft{\r\n        uint256 tokenId;\r\n        uint256 price;\r\n        uint256 shares;\r\n        uint256 shareValue;\r\n        address fractionalToken;\r\n        address payable owner;\r\n    }\r\n\r\n    mapping(uint256 => _fnft) public FNFT;\r\n\r\n    constructor() ERC721(\"FractionalNFT\", \"FNFT\") {}\r\n\r\n    function safeMint(address to) public onlyOwner {\r\n        _tokenIdCounter.increment();\r\n        _safeMint(to, _tokenIdCounter.current());\r\n    }\r\n\r\n    function _baseURI() internal pure override returns (string memory) {\r\n        return \"\";\r\n    }\r\n\r\n    function _beforeTokenTransfer(address from, address to, uint256 tokenId) internal override(ERC721) {\r\n        super._beforeTokenTransfer(from, to, tokenId);\r\n    }\r\n\r\n    function _burn(uint256 tokenId) internal override(ERC721URIStorage) {\r\n        super._burn(tokenId);\r\n    }\r\n\r\n    function tokenURI(uint256 tokenId) public view override(ERC721URIStorage) returns (string memory) {\r\n        return super.tokenURI(tokenId);\r\n    }\r\n\r\n    function supportsInterface(bytes4 interfaceId) public view override(ERC721) returns (bool) {\r\n        return super.supportsInterface(interfaceId);\r\n    }\r\n\r\n    //is the caller of this function the owner of the NFT?\r\n\tmodifier isNFTOwner(uint256 _tokenId) {\r\n\t\trequire(msg.sender == ownerOf(_tokenId));\r\n\t\t_;\r\n\t}\r\n\r\n    function mint(address _to, string memory tokenURI_) external onlyOwner returns(uint256) {\r\n        _tokenIdCounter.increment();\r\n        uint256 tokenId = _tokenIdCounter.current();\r\n        _safeMint(_to, tokenId);\r\n        _setTokenURI(tokenId, tokenURI_);\r\n\r\n        return tokenId;\r\n    }\r\n\r\n    function lockNFT(uint256 _tokenID, uint256 _totalFractionalTokens, uint256 _price) external onlyOwner isNFTOwner(_tokenID) {\r\n        //transfer NFT to smart contract\r\n        _transfer(msg.sender, address(this), _tokenID);\r\n        //Create a ERC20 Token Contract for this newly minted NFT\r\n        FToken _ftoken = (new FToken)();                                          //initialize\r\n        //mint the fractional tokens and send it to the owner of this NFT           \r\n        _ftoken.mint(msg.sender, _totalFractionalTokens);\r\n        _fnft memory fnft = _fnft(_tokenID, _price, _totalFractionalTokens, _price.div(_totalFractionalTokens), address(_ftoken), payable(msg.sender));\r\n        FNFT[_tokenID]  = fnft;                                  \r\n    }\r\n\r\n    function sellShares(uint256 _tokenID, uint256 _sharesToSell) public nonReentrant payable{\r\n        _fnft memory fnft = FNFT[_tokenID];\r\n        require(_sharesToSell <= fnft.shares, \"Cannot sell shares more than allocated\");\r\n        require(FToken(fnft.fractionalToken).balanceOf(msg.sender) >= _sharesToSell,\r\n            \"Insufficient shares\"\r\n        );\r\n\r\n        uint256 _amount = fnft.shareValue.mul(_sharesToSell);\r\n        uint256 _balance = address(this).balance;\r\n        require(_amount <= _balance, \"Insufficient fund in contract\");\r\n        payable(msg.sender).transfer(_amount);\r\n\r\n        FToken(fnft.fractionalToken).transferFrom(msg.sender, address(this), _sharesToSell);\r\n    }\r\n\r\n    function buyShares(uint256 _tokenID, uint256 _sharesToBuy) public nonReentrant payable {\r\n        _fnft memory fnft = FNFT[_tokenID];\r\n        require(_sharesToBuy <= fnft.shares, \"Cannot buy shares more than allocated\");\r\n        require(FToken(fnft.fractionalToken).balanceOf(address(this)) >= _sharesToBuy,\r\n            \"Insufficient shares\"\r\n        );\r\n        require(msg.value >= fnft.shareValue.mul(_sharesToBuy),\r\n            \"Insufficient funds\"\r\n        );\r\n        \r\n        uint256 _amount = fnft.shareValue.mul(_sharesToBuy);\r\n        payable(address(this)).transfer(_amount);\r\n\r\n        //Update NFT Owner if all the shares are purchased\r\n        if (fnft.shares == FToken(fnft.fractionalToken).balanceOf(msg.sender) + _sharesToBuy) {\r\n            FNFT[_tokenID].owner = payable(msg.sender);\r\n        }\r\n\r\n        FToken(fnft.fractionalToken).transfer(payable(msg.sender), _sharesToBuy);\r\n    }\r\n\r\n     /// @notice an external function to burn all ERC20 tokens to receive the ERC721 token\r\n    function releaseNFT(uint256 _tokenID) external {\r\n        _fnft memory fnft = FNFT[_tokenID];\r\n        require(FToken(fnft.fractionalToken).balanceOf(msg.sender) >= FToken(fnft.fractionalToken).totalSupply(), \"All Fractional Tokens are needed to redeem the NFT\");\r\n\r\n        //Burn all fractional NFT of sender\r\n        FToken(fnft.fractionalToken).burn(msg.sender, FToken(fnft.fractionalToken).balanceOf(msg.sender));\r\n        \r\n        // transfer erc721 to redeemer\r\n        _transfer(address(this), msg.sender, _tokenID);\r\n\r\n        delete FNFT[_tokenID];\r\n\r\n    }\r\n\r\n    receive() external payable {\r\n        //TODO\r\n    }\r\n\r\n    fallback() external payable {\r\n        //TODO\r\n    }\r\n}\r\n\r\ncontract FToken is ERC20, Ownable {\r\n    constructor() ERC20(\"Fractional Token\", \"FToken\") {}\r\n\r\n    function mint(address to, uint256 amount) public onlyOwner {\r\n        _mint(to, amount);\r\n    }\r\n\r\n    function burn(address to, uint256 amount) public onlyOwner {\r\n        _burn(to, amount);\r\n    }\r\n}\r\n",
  "sourcePath": "D:\\Freelancing\\Fractional_NFT\\Fractional_NFT\\contracts\\FractionalNFT.sol",
  "compiler": {
    "name": "solc",
    "version": "0.8.10+commit.fc410830.Emscripten.clang"
  },
  "schemaVersion": "3.4.4",
  "updatedAt": "2022-10-20T19:27:18.962Z",
  "devdoc": {
    "kind": "dev",
    "methods": {
      "approve(address,uint256)": {
        "details": "See {IERC721-approve}."
      },
      "balanceOf(address)": {
        "details": "See {IERC721-balanceOf}."
      },
      "getApproved(uint256)": {
        "details": "See {IERC721-getApproved}."
      },
      "isApprovedForAll(address,address)": {
        "details": "See {IERC721-isApprovedForAll}."
      },
      "name()": {
        "details": "See {IERC721Metadata-name}."
      },
      "owner()": {
        "details": "Returns the address of the current owner."
      },
      "ownerOf(uint256)": {
        "details": "See {IERC721-ownerOf}."
      },
      "renounceOwnership()": {
        "details": "Leaves the contract without owner. It will not be possible to call `onlyOwner` functions anymore. Can only be called by the current owner. NOTE: Renouncing ownership will leave the contract without an owner, thereby removing any functionality that is only available to the owner."
      },
      "safeTransferFrom(address,address,uint256)": {
        "details": "See {IERC721-safeTransferFrom}."
      },
      "safeTransferFrom(address,address,uint256,bytes)": {
        "details": "See {IERC721-safeTransferFrom}."
      },
      "setApprovalForAll(address,bool)": {
        "details": "See {IERC721-setApprovalForAll}."
      },
      "supportsInterface(bytes4)": {
        "details": "See {IERC165-supportsInterface}."
      },
      "symbol()": {
        "details": "See {IERC721Metadata-symbol}."
      },
      "tokenURI(uint256)": {
        "details": "See {IERC721Metadata-tokenURI}."
      },
      "transferFrom(address,address,uint256)": {
        "details": "See {IERC721-transferFrom}."
      },
      "transferOwnership(address)": {
        "details": "Transfers ownership of the contract to a new account (`newOwner`). Can only be called by the current owner."
      }
    },
    "version": 1
  },
  "userdoc": {
    "kind": "user",
    "methods": {
      "releaseNFT(uint256)": {
        "notice": "an external function to burn all ERC20 tokens to receive the ERC721 token"
      }
    },
    "version": 1
  }
}