{
  "contractName": "FToken",
  "abi": [
    {
      "inputs": [],
      "stateMutability": "nonpayable",
      "type": "constructor"
    },
    {
      "anonymous": false,
      "inputs": [
        {
          "indexed": true,
          "internalType": "address",
          "name": "owner",
          "type": "address"
        },
        {
          "indexed": true,
          "internalType": "address",
          "name": "spender",
          "type": "address"
        },
        {
          "indexed": false,
          "internalType": "uint256",
          "name": "value",
          "type": "uint256"
        }
      ],
      "name": "Approval",
      "type": "event"
    },
    {
      "anonymous": false,
      "inputs": [
        {
          "indexed": true,
          "internalType": "address",
          "name": "previousOwner",
          "type": "address"
        },
        {
          "indexed": true,
          "internalType": "address",
          "name": "newOwner",
          "type": "address"
        }
      ],
      "name": "OwnershipTransferred",
      "type": "event"
    },
    {
      "anonymous": false,
      "inputs": [
        {
          "indexed": true,
          "internalType": "address",
          "name": "from",
          "type": "address"
        },
        {
          "indexed": true,
          "internalType": "address",
          "name": "to",
          "type": "address"
        },
        {
          "indexed": false,
          "internalType": "uint256",
          "name": "value",
          "type": "uint256"
        }
      ],
      "name": "Transfer",
      "type": "event"
    },
    {
      "inputs": [
        {
          "internalType": "address",
          "name": "owner",
          "type": "address"
        },
        {
          "internalType": "address",
          "name": "spender",
          "type": "address"
        }
      ],
      "name": "allowance",
      "outputs": [
        {
          "internalType": "uint256",
          "name": "",
          "type": "uint256"
        }
      ],
      "stateMutability": "view",
      "type": "function"
    },
    {
      "inputs": [
        {
          "internalType": "address",
          "name": "spender",
          "type": "address"
        },
        {
          "internalType": "uint256",
          "name": "amount",
          "type": "uint256"
        }
      ],
      "name": "approve",
      "outputs": [
        {
          "internalType": "bool",
          "name": "",
          "type": "bool"
        }
      ],
      "stateMutability": "nonpayable",
      "type": "function"
    },
    {
      "inputs": [
        {
          "internalType": "address",
          "name": "account",
          "type": "address"
        }
      ],
      "name": "balanceOf",
      "outputs": [
        {
          "internalType": "uint256",
          "name": "",
          "type": "uint256"
        }
      ],
      "stateMutability": "view",
      "type": "function"
    },
    {
      "inputs": [],
      "name": "decimals",
      "outputs": [
        {
          "internalType": "uint8",
          "name": "",
          "type": "uint8"
        }
      ],
      "stateMutability": "view",
      "type": "function"
    },
    {
      "inputs": [
        {
          "internalType": "address",
          "name": "spender",
          "type": "address"
        },
        {
          "internalType": "uint256",
          "name": "subtractedValue",
          "type": "uint256"
        }
      ],
      "name": "decreaseAllowance",
      "outputs": [
        {
          "internalType": "bool",
          "name": "",
          "type": "bool"
        }
      ],
      "stateMutability": "nonpayable",
      "type": "function"
    },
    {
      "inputs": [
        {
          "internalType": "address",
          "name": "spender",
          "type": "address"
        },
        {
          "internalType": "uint256",
          "name": "addedValue",
          "type": "uint256"
        }
      ],
      "name": "increaseAllowance",
      "outputs": [
        {
          "internalType": "bool",
          "name": "",
          "type": "bool"
        }
      ],
      "stateMutability": "nonpayable",
      "type": "function"
    },
    {
      "inputs": [],
      "name": "name",
      "outputs": [
        {
          "internalType": "string",
          "name": "",
          "type": "string"
        }
      ],
      "stateMutability": "view",
      "type": "function"
    },
    {
      "inputs": [],
      "name": "owner",
      "outputs": [
        {
          "internalType": "address",
          "name": "",
          "type": "address"
        }
      ],
      "stateMutability": "view",
      "type": "function"
    },
    {
      "inputs": [],
      "name": "renounceOwnership",
      "outputs": [],
      "stateMutability": "nonpayable",
      "type": "function"
    },
    {
      "inputs": [],
      "name": "symbol",
      "outputs": [
        {
          "internalType": "string",
          "name": "",
          "type": "string"
        }
      ],
      "stateMutability": "view",
      "type": "function"
    },
    {
      "inputs": [],
      "name": "totalSupply",
      "outputs": [
        {
          "internalType": "uint256",
          "name": "",
          "type": "uint256"
        }
      ],
      "stateMutability": "view",
      "type": "function"
    },
    {
      "inputs": [
        {
          "internalType": "address",
          "name": "to",
          "type": "address"
        },
        {
          "internalType": "uint256",
          "name": "amount",
          "type": "uint256"
        }
      ],
      "name": "transfer",
      "outputs": [
        {
          "internalType": "bool",
          "name": "",
          "type": "bool"
        }
      ],
      "stateMutability": "nonpayable",
      "type": "function"
    },
    {
      "inputs": [
        {
          "internalType": "address",
          "name": "from",
          "type": "address"
        },
        {
          "internalType": "address",
          "name": "to",
          "type": "address"
        },
        {
          "internalType": "uint256",
          "name": "amount",
          "type": "uint256"
        }
      ],
      "name": "transferFrom",
      "outputs": [
        {
          "internalType": "bool",
          "name": "",
          "type": "bool"
        }
      ],
      "stateMutability": "nonpayable",
      "type": "function"
    },
    {
      "inputs": [
        {
          "internalType": "address",
          "name": "newOwner",
          "type": "address"
        }
      ],
      "name": "transferOwnership",
      "outputs": [],
      "stateMutability": "nonpayable",
      "type": "function"
    },
    {
      "inputs": [
        {
          "internalType": "address",
          "name": "to",
          "type": "address"
        },
        {
          "internalType": "uint256",
          "name": "amount",
          "type": "uint256"
        }
      ],
      "name": "mint",
      "outputs": [],
      "stateMutability": "nonpayable",
      "type": "function"
    },
    {
      "inputs": [
        {
          "internalType": "address",
          "name": "to",
          "type": "address"
        },
        {
          "internalType": "uint256",
          "name": "amount",
          "type": "uint256"
        }
      ],
      "name": "burn",
      "outputs": [],
      "stateMutability": "nonpayable",
      "type": "function"
    }
  ],
  "bytecode": "0x60806040523480156200001157600080fd5b50604080518082018252601081526f233930b1ba34b7b730b6102a37b5b2b760811b602080830191825283518085019094526006845265232a37b5b2b760d11b9084015281519192916200006891600391620000f7565b5080516200007e906004906020840190620000f7565b5050506200009b62000095620000a160201b60201c565b620000a5565b620001da565b3390565b600580546001600160a01b038381166001600160a01b0319831681179093556040519116919082907f8be0079c531659141344cd1fd0a4f28419497f9722a3daafe3b4186f6b6457e090600090a35050565b82805462000105906200019d565b90600052602060002090601f01602090048101928262000129576000855562000174565b82601f106200014457805160ff191683800117855562000174565b8280016001018555821562000174579182015b828111156200017457825182559160200191906001019062000157565b506200018292915062000186565b5090565b5b8082111562000182576000815560010162000187565b600181811c90821680620001b257607f821691505b60208210811415620001d457634e487b7160e01b600052602260045260246000fd5b50919050565b610ce280620001ea6000396000f3fe608060405234801561001057600080fd5b50600436106101005760003560e01c8063715018a611610097578063a457c2d711610066578063a457c2d714610209578063a9059cbb1461021c578063dd62ed3e1461022f578063f2fde38b1461024257600080fd5b8063715018a6146101cb5780638da5cb5b146101d357806395d89b41146101ee5780639dc29fac146101f657600080fd5b8063313ce567116100d3578063313ce5671461016b578063395093511461017a57806340c10f191461018d57806370a08231146101a257600080fd5b806306fdde0314610105578063095ea7b31461012357806318160ddd1461014657806323b872dd14610158575b600080fd5b61010d610255565b60405161011a9190610b00565b60405180910390f35b610136610131366004610b71565b6102e7565b604051901515815260200161011a565b6002545b60405190815260200161011a565b610136610166366004610b9b565b6102ff565b6040516012815260200161011a565b610136610188366004610b71565b610323565b6101a061019b366004610b71565b610345565b005b61014a6101b0366004610bd7565b6001600160a01b031660009081526020819052604090205490565b6101a061035b565b6005546040516001600160a01b03909116815260200161011a565b61010d61036f565b6101a0610204366004610b71565b61037e565b610136610217366004610b71565b610390565b61013661022a366004610b71565b610410565b61014a61023d366004610bf9565b61041e565b6101a0610250366004610bd7565b610449565b60606003805461026490610c2c565b80601f016020809104026020016040519081016040528092919081815260200182805461029090610c2c565b80156102dd5780601f106102b2576101008083540402835291602001916102dd565b820191906000526020600020905b8154815290600101906020018083116102c057829003601f168201915b5050505050905090565b6000336102f58185856104c2565b5060019392505050565b60003361030d8582856105e7565b610318858585610661565b506001949350505050565b6000336102f5818585610336838361041e565b6103409190610c7d565b6104c2565b61034d61082f565b6103578282610889565b5050565b61036361082f565b61036d6000610968565b565b60606004805461026490610c2c565b61038661082f565b61035782826109ba565b6000338161039e828661041e565b9050838110156104035760405162461bcd60e51b815260206004820152602560248201527f45524332303a2064656372656173656420616c6c6f77616e63652062656c6f77604482015264207a65726f60d81b60648201526084015b60405180910390fd5b61031882868684036104c2565b6000336102f5818585610661565b6001600160a01b03918216600090815260016020908152604080832093909416825291909152205490565b61045161082f565b6001600160a01b0381166104b65760405162461bcd60e51b815260206004820152602660248201527f4f776e61626c653a206e6577206f776e657220697320746865207a65726f206160448201526564647265737360d01b60648201526084016103fa565b6104bf81610968565b50565b6001600160a01b0383166105245760405162461bcd60e51b8152602060048201526024808201527f45524332303a20617070726f76652066726f6d20746865207a65726f206164646044820152637265737360e01b60648201526084016103fa565b6001600160a01b0382166105855760405162461bcd60e51b815260206004820152602260248201527f45524332303a20617070726f766520746f20746865207a65726f206164647265604482015261737360f01b60648201526084016103fa565b6001600160a01b0383811660008181526001602090815260408083209487168084529482529182902085905590518481527f8c5be1e5ebec7d5bd14f71427d1e84f3dd0314c0f7b2291e5b200ac8c7c3b92591015b60405180910390a3505050565b60006105f3848461041e565b9050600019811461065b578181101561064e5760405162461bcd60e51b815260206004820152601d60248201527f45524332303a20696e73756666696369656e7420616c6c6f77616e636500000060448201526064016103fa565b61065b84848484036104c2565b50505050565b6001600160a01b0383166106c55760405162461bcd60e51b815260206004820152602560248201527f45524332303a207472616e736665722066726f6d20746865207a65726f206164604482015264647265737360d81b60648201526084016103fa565b6001600160a01b0382166107275760405162461bcd60e51b815260206004820152602360248201527f45524332303a207472616e7366657220746f20746865207a65726f206164647260448201526265737360e81b60648201526084016103fa565b6001600160a01b0383166000908152602081905260409020548181101561079f5760405162461bcd60e51b815260206004820152602660248201527f45524332303a207472616e7366657220616d6f756e7420657863656564732062604482015265616c616e636560d01b60648201526084016103fa565b6001600160a01b038085166000908152602081905260408082208585039055918516815290812080548492906107d6908490610c7d565b92505081905550826001600160a01b0316846001600160a01b03167fddf252ad1be2c89b69c2b068fc378daa952ba7f163c4a11628f55a4df523b3ef8460405161082291815260200190565b60405180910390a361065b565b6005546001600160a01b0316331461036d5760405162461bcd60e51b815260206004820181905260248201527f4f776e61626c653a2063616c6c6572206973206e6f7420746865206f776e657260448201526064016103fa565b6001600160a01b0382166108df5760405162461bcd60e51b815260206004820152601f60248201527f45524332303a206d696e7420746f20746865207a65726f20616464726573730060448201526064016103fa565b80600260008282546108f19190610c7d565b90915550506001600160a01b0382166000908152602081905260408120805483929061091e908490610c7d565b90915550506040518181526001600160a01b038316906000907fddf252ad1be2c89b69c2b068fc378daa952ba7f163c4a11628f55a4df523b3ef9060200160405180910390a35050565b600580546001600160a01b038381166001600160a01b0319831681179093556040519116919082907f8be0079c531659141344cd1fd0a4f28419497f9722a3daafe3b4186f6b6457e090600090a35050565b6001600160a01b038216610a1a5760405162461bcd60e51b815260206004820152602160248201527f45524332303a206275726e2066726f6d20746865207a65726f206164647265736044820152607360f81b60648201526084016103fa565b6001600160a01b03821660009081526020819052604090205481811015610a8e5760405162461bcd60e51b815260206004820152602260248201527f45524332303a206275726e20616d6f756e7420657863656564732062616c616e604482015261636560f01b60648201526084016103fa565b6001600160a01b0383166000908152602081905260408120838303905560028054849290610abd908490610c95565b90915550506040518281526000906001600160a01b038516907fddf252ad1be2c89b69c2b068fc378daa952ba7f163c4a11628f55a4df523b3ef906020016105da565b600060208083528351808285015260005b81811015610b2d57858101830151858201604001528201610b11565b81811115610b3f576000604083870101525b50601f01601f1916929092016040019392505050565b80356001600160a01b0381168114610b6c57600080fd5b919050565b60008060408385031215610b8457600080fd5b610b8d83610b55565b946020939093013593505050565b600080600060608486031215610bb057600080fd5b610bb984610b55565b9250610bc760208501610b55565b9150604084013590509250925092565b600060208284031215610be957600080fd5b610bf282610b55565b9392505050565b60008060408385031215610c0c57600080fd5b610c1583610b55565b9150610c2360208401610b55565b90509250929050565b600181811c90821680610c4057607f821691505b60208210811415610c6157634e487b7160e01b600052602260045260246000fd5b50919050565b634e487b7160e01b600052601160045260246000fd5b60008219821115610c9057610c90610c67565b500190565b600082821015610ca757610ca7610c67565b50039056fea26469706673582212200231ebbc0a0754a75033202dd3bee6f016c54afbea507e9c2586a8b15c03b82564736f6c634300080a0033",
  "immutableReferences": {},
  "source": "// SPDX-License-Identifier: MIT\r\npragma solidity ^0.8.10;\r\n\r\nimport \"@openzeppelin/contracts/token/ERC721/extensions/ERC721URIStorage.sol\";\r\nimport \"@openzeppelin/contracts/security/ReentrancyGuard.sol\";\r\nimport \"@openzeppelin/contracts/utils/Counters.sol\";\r\nimport \"@openzeppelin/contracts/access/Ownable.sol\";\r\nimport \"@openzeppelin/contracts/token/ERC20/ERC20.sol\";\r\nimport \"@openzeppelin/contracts/utils/math/SafeMath.sol\";\r\n\r\ncontract FractionalNFT is ERC721URIStorage, ReentrancyGuard, Ownable {\r\n    using Counters for Counters.Counter;\r\n    using SafeMath for uint256;\r\n\r\n    Counters.Counter private _tokenIdCounter;\r\n\r\n    struct _fnft{\r\n        uint256 tokenId;\r\n        uint256 price;\r\n        uint256 shares;\r\n        uint256 shareValue;\r\n        address fractionalToken;\r\n        address payable owner;\r\n    }\r\n\r\n    mapping(uint256 => _fnft) public FNFT;\r\n\r\n    constructor() ERC721(\"FractionalNFT\", \"FNFT\") {}\r\n\r\n    function safeMint(address to) public onlyOwner {\r\n        _tokenIdCounter.increment();\r\n        _safeMint(to, _tokenIdCounter.current());\r\n    }\r\n\r\n    function _baseURI() internal pure override returns (string memory) {\r\n        return \"\";\r\n    }\r\n\r\n    function _beforeTokenTransfer(address from, address to, uint256 tokenId) internal override(ERC721) {\r\n        super._beforeTokenTransfer(from, to, tokenId);\r\n    }\r\n\r\n    function _burn(uint256 tokenId) internal override(ERC721URIStorage) {\r\n        super._burn(tokenId);\r\n    }\r\n\r\n    function tokenURI(uint256 tokenId) public view override(ERC721URIStorage) returns (string memory) {\r\n        return super.tokenURI(tokenId);\r\n    }\r\n\r\n    function supportsInterface(bytes4 interfaceId) public view override(ERC721) returns (bool) {\r\n        return super.supportsInterface(interfaceId);\r\n    }\r\n\r\n    //is the caller of this function the owner of the NFT?\r\n\tmodifier isNFTOwner(uint256 _tokenId) {\r\n\t\trequire(msg.sender == ownerOf(_tokenId));\r\n\t\t_;\r\n\t}\r\n\r\n    function mint(address _to, string memory tokenURI_) external onlyOwner returns(uint256) {\r\n        _tokenIdCounter.increment();\r\n        uint256 tokenId = _tokenIdCounter.current();\r\n        _safeMint(_to, tokenId);\r\n        _setTokenURI(tokenId, tokenURI_);\r\n\r\n        return tokenId;\r\n    }\r\n\r\n    function lockNFT(uint256 _tokenID, uint256 _totalFractionalTokens, uint256 _price) external onlyOwner isNFTOwner(_tokenID) {\r\n        //transfer NFT to smart contract\r\n        _transfer(msg.sender, address(this), _tokenID);\r\n        //Create a ERC20 Token Contract for this newly minted NFT\r\n        FToken _ftoken = (new FToken)();                                          //initialize\r\n        //mint the fractional tokens and send it to the owner of this NFT           \r\n        _ftoken.mint(msg.sender, _totalFractionalTokens);\r\n        _fnft memory fnft = _fnft(_tokenID, _price, _totalFractionalTokens, _price.div(_totalFractionalTokens), address(_ftoken), payable(msg.sender));\r\n        FNFT[_tokenID]  = fnft;                                  \r\n    }\r\n\r\n    function sellShares(uint256 _tokenID, uint256 _sharesToSell) public nonReentrant payable{\r\n        _fnft memory fnft = FNFT[_tokenID];\r\n        require(_sharesToSell <= fnft.shares, \"Cannot sell shares more than allocated\");\r\n        require(FToken(fnft.fractionalToken).balanceOf(msg.sender) >= _sharesToSell,\r\n            \"Insufficient shares\"\r\n        );\r\n\r\n        uint256 _amount = fnft.shareValue.mul(_sharesToSell);\r\n        uint256 _balance = address(this).balance;\r\n        require(_amount <= _balance, \"Insufficient fund in contract\");\r\n        payable(msg.sender).transfer(_amount);\r\n\r\n        FToken(fnft.fractionalToken).transferFrom(msg.sender, address(this), _sharesToSell);\r\n    }\r\n\r\n    function buyShares(uint256 _tokenID, uint256 _sharesToBuy) public nonReentrant payable {\r\n        _fnft memory fnft = FNFT[_tokenID];\r\n        require(_sharesToBuy <= fnft.shares, \"Cannot buy shares more than allocated\");\r\n        require(FToken(fnft.fractionalToken).balanceOf(address(this)) >= _sharesToBuy,\r\n            \"Insufficient shares\"\r\n        );\r\n        require(msg.value >= fnft.shareValue.mul(_sharesToBuy),\r\n            \"Insufficient funds\"\r\n        );\r\n        \r\n        uint256 _amount = fnft.shareValue.mul(_sharesToBuy);\r\n        payable(address(this)).transfer(_amount);\r\n\r\n        //Update NFT Owner if all the shares are purchased\r\n        if (fnft.shares == FToken(fnft.fractionalToken).balanceOf(msg.sender) + _sharesToBuy) {\r\n            FNFT[_tokenID].owner = payable(msg.sender);\r\n        }\r\n\r\n        FToken(fnft.fractionalToken).transfer(payable(msg.sender), _sharesToBuy);\r\n    }\r\n\r\n     /// @notice an external function to burn all ERC20 tokens to receive the ERC721 token\r\n    function releaseNFT(uint256 _tokenID) external {\r\n        _fnft memory fnft = FNFT[_tokenID];\r\n        require(FToken(fnft.fractionalToken).balanceOf(msg.sender) >= FToken(fnft.fractionalToken).totalSupply(), \"All Fractional Tokens are needed to redeem the NFT\");\r\n\r\n        //Burn all fractional NFT of sender\r\n        FToken(fnft.fractionalToken).burn(msg.sender, FToken(fnft.fractionalToken).balanceOf(msg.sender));\r\n        \r\n        // transfer erc721 to redeemer\r\n        _transfer(address(this), msg.sender, _tokenID);\r\n\r\n        delete FNFT[_tokenID];\r\n\r\n    }\r\n\r\n    receive() external payable {\r\n        //TODO\r\n    }\r\n\r\n    fallback() external payable {\r\n        //TODO\r\n    }\r\n}\r\n\r\ncontract FToken is ERC20, Ownable {\r\n    constructor() ERC20(\"Fractional Token\", \"FToken\") {}\r\n\r\n    function mint(address to, uint256 amount) public onlyOwner {\r\n        _mint(to, amount);\r\n    }\r\n\r\n    function burn(address to, uint256 amount) public onlyOwner {\r\n        _burn(to, amount);\r\n    }\r\n}\r\n",
  "sourcePath": "D:\\Freelancing\\Fractional_NFT\\Fractional_NFT\\contracts\\FractionalNFT.sol",
  "compiler": {
    "name": "solc",
    "version": "0.8.10+commit.fc410830.Emscripten.clang"
  },
  "schemaVersion": "3.4.4",
  "updatedAt": "2022-10-20T19:27:18.946Z",
  "devdoc": {
    "kind": "dev",
    "methods": {
      "allowance(address,address)": {
        "details": "See {IERC20-allowance}."
      },
      "approve(address,uint256)": {
        "details": "See {IERC20-approve}. NOTE: If `amount` is the maximum `uint256`, the allowance is not updated on `transferFrom`. This is semantically equivalent to an infinite approval. Requirements: - `spender` cannot be the zero address."
      },
      "balanceOf(address)": {
        "details": "See {IERC20-balanceOf}."
      },
      "decimals()": {
        "details": "Returns the number of decimals used to get its user representation. For example, if `decimals` equals `2`, a balance of `505` tokens should be displayed to a user as `5.05` (`505 / 10 ** 2`). Tokens usually opt for a value of 18, imitating the relationship between Ether and Wei. This is the value {ERC20} uses, unless this function is overridden; NOTE: This information is only used for _display_ purposes: it in no way affects any of the arithmetic of the contract, including {IERC20-balanceOf} and {IERC20-transfer}."
      },
      "decreaseAllowance(address,uint256)": {
        "details": "Atomically decreases the allowance granted to `spender` by the caller. This is an alternative to {approve} that can be used as a mitigation for problems described in {IERC20-approve}. Emits an {Approval} event indicating the updated allowance. Requirements: - `spender` cannot be the zero address. - `spender` must have allowance for the caller of at least `subtractedValue`."
      },
      "increaseAllowance(address,uint256)": {
        "details": "Atomically increases the allowance granted to `spender` by the caller. This is an alternative to {approve} that can be used as a mitigation for problems described in {IERC20-approve}. Emits an {Approval} event indicating the updated allowance. Requirements: - `spender` cannot be the zero address."
      },
      "name()": {
        "details": "Returns the name of the token."
      },
      "owner()": {
        "details": "Returns the address of the current owner."
      },
      "renounceOwnership()": {
        "details": "Leaves the contract without owner. It will not be possible to call `onlyOwner` functions anymore. Can only be called by the current owner. NOTE: Renouncing ownership will leave the contract without an owner, thereby removing any functionality that is only available to the owner."
      },
      "symbol()": {
        "details": "Returns the symbol of the token, usually a shorter version of the name."
      },
      "totalSupply()": {
        "details": "See {IERC20-totalSupply}."
      },
      "transfer(address,uint256)": {
        "details": "See {IERC20-transfer}. Requirements: - `to` cannot be the zero address. - the caller must have a balance of at least `amount`."
      },
      "transferFrom(address,address,uint256)": {
        "details": "See {IERC20-transferFrom}. Emits an {Approval} event indicating the updated allowance. This is not required by the EIP. See the note at the beginning of {ERC20}. NOTE: Does not update the allowance if the current allowance is the maximum `uint256`. Requirements: - `from` and `to` cannot be the zero address. - `from` must have a balance of at least `amount`. - the caller must have allowance for ``from``'s tokens of at least `amount`."
      },
      "transferOwnership(address)": {
        "details": "Transfers ownership of the contract to a new account (`newOwner`). Can only be called by the current owner."
      }
    },
    "version": 1
  },
  "userdoc": {
    "kind": "user",
    "methods": {},
    "version": 1
  }
}